:02000002D0002C
:1040000000400D005C9A0D00000006000C00050148
:084010000401BD0B00000000DB
:04401800108F0D00F8
:1040200009480A49884208B505D0094A824202D0A7
:10403000121A04F063FE0748074A0021121A04F01E
:1040400085FE014808BD00BFACE40320CC990D00FB
:1040500014E5032018E50320F4E7032070B5074EAC
:10406000074C02F0E7FFA41BA4080025A54200D1DD
:1040700070BD56F8043B98470135F7E79C990D0051
:10408000C0990D0000F07CBC08B500F045FEBDE80D
:10409000084002F091BF01F0FDBF01F0FBBF02F04C
:1040A00001B801F0FFBF0078B0FA80F04009704716
:1040B000012303707047704780B50FF29009D9E96A
:1040C000008924A7D7E900671B4D00240E2003F0C8
:1040D00046FE1A4BC117C3E9000104F061F94246DC
:1040E0004B4604F093F932463B4604F0B9FADFF848
:1040F0006CC002460B46CCE9002322462B4603F057
:10410000CDFF0F4B002204F081F909A3D3E900236E
:1041100004F07CF90B4B002203F0C2FF0A4BC3E909
:1041200000014FF47A7002F00DFFCFE7AFF300808B
:10413000CDCCCCCCCCCCFC3F0000E03F20E6032033
:10414000000059400000404028E60320666666668D
:1041500066660A400000000000FEAF4038E603201B
:1041600008B5054D054C284600F008FF20604FF4C7
:104170007A7002F0E7FEF6E71CE6032018E603205B
:1041800008B5054D054C284600F0FBFE20604FF4B5
:104190007A7002F0D7FEF6E71CE60320B4E50320B0
:1041A00037B504460846019104F006FE6368A2682C
:1041B000451CE818904208D8206801992A461844FE
:1041C00004F09CFD60682844606003B030BD0000CE
:1041D00038B584690A4B036005467CB16368013BCE
:1041E00063605BB9236820469B689847A368013BDE
:1041F000A3601BB923682046DB689847284638BD72
:10420000E8960D0008B501F0EDFC034B1860BDE821
:10421000084001F027BF00BFD8E7032003682BB197
:104220004268934202D2184604F044BD0020704711
:1042300038B50568044645B143689D4205D2284615
:1042400004F0BAFD013005442560204638BD000069
:1042500038B504460B46D0E901012568044A091A1D
:10426000284401F02FFF636801300344636038BDC8
:10427000248F0D0038B504460B46D0E901012568AE
:10428000044A091A284401F01DFF63680130034401
:10429000636038BD278F0D0008B5002343770068A1
:1042A00003F018FBBDE8084001F01EBC2DE9F04307
:1042B00001EB02098FB04945CDE9051980460D464D
:1042C000164680F0928005A80F88FFF7B1FF0368BB
:1042D000994540F28A8005A8FFF7A0FF47F27623B0
:1042E0009F42C4B200F0A98027D847F261239F42C1
:1042F0007ED047F264239F4242D046F670539F42DD
:1043000028D1634E634FDFF8A081059B99456CD996
:1043100005A8FFF783FFC4B205A8FFF789FF059D35
:104320003146284604F03EFD0146E0B9204603F040
:10433000D9FC05A8FFF77CFFE7E747F264739F42CB
:104340003FD047F276739F4200F0878047F2617357
:104350009F425FD00023CDE9013302220092B8F8DA
:104360001A20194629E03946284604F01BFD28B1D9
:104370004146284604F016FD0028DAD10121D5E790
:104380000AAB4549079307A810230025CDE9085338
:10439000FFF706FF07A82146FFF75AFF204603F064
:1043A000CBFC014607A8FFF765FF089BCDE9015547
:1043B000013B0093079B2A461421404600F07CFBFA
:1043C00013E005A8FFF734FF036899450DD9A4B29F
:1043D0000121204603F086FC05A8FFF71FFF011E00
:1043E00018BF0121204603F08EFC0FB0BDE8F0831A
:1043F0000AAB079307A8102328490025CDE90853E5
:10440000FFF7CEFE07A82146FFF722FF204603F064
:10441000A6FCC6E705A8FFF70BFF03689945E4D99A
:10442000A4B20121204603F05DFC05A8FFF7F6FECB
:104430000146204603F0AAFCD7E720468DF8284025
:1044400001F054FB03460AA823B1154A934201D058
:104450009847CAE701F046FBC7E705A8FFF7E8FE63
:10446000059B8DF81C405D1B751B2046CDE90A3568
:104470000C9501F045FB03460AA907A823B1094A98
:10448000934201D09847B0E701F02DFBADE700BFA4
:104490002B8F0D002E8F0D00368F0D00398F0D00E4
:1044A000E55A0D00E75A0D00328F0D002DE9F0415D
:1044B0008CB004AF044605220068391D02F018FDD7
:1044C000B8B3052804D000202037BD46BDE8F081F0
:1044D000B7F80520130A43EA0223B7F80720A7F824
:1044E000053099B2130A43EA02231FFA83F8A7F8AA
:1044F00007300029E7D03B7923BB01F0F1FA0246EF
:10450000E060607FB7F80730C0B9B7F8051001293F
:1045100014D1092B0FD0C82B01D0042BD4D10125E5
:1045200062612046657700F075FBFFF76BFE01F0D6
:10453000DBFA0120C8E703236377C5E7581F18BFDC
:104540000120C1E7B8F5806F03D92046FFF7A4FE2C
:10455000EFE708F1080323F007036E46ADEB030D08
:1045600004AD20684246294602F0C2FC80454FF067
:1045700000007FD1B7F80730E85401F0B1FA3B7979
:10458000E060142B00F0A68048D80F2B00F0A2802A
:1045900007D8022B48D0062B51D02046FFF77CFECF
:1045A00058E0112BF9D100233B70B7F807302B44AA
:1045B0009D42C7E903534DD207F10C00D5F80080A6
:1045C000FFF736FEFB68B7F807105D1B4D1BC7E908
:1045D00005357B68FD61C3F30F236383644B984506
:1045E00000F0BF8000F28C80A3F57F236FF400728F
:1045F0001344984500F09D8079D8A3F50033063B1D
:10460000984500F09C8003F50033033398456BD147
:1046100007F11401384601F066FA65E0292B1BD03A
:10462000372B17D01D2BB8D1637F43B90123637794
:10463000204600F0EFFAFFF7E5FD01F055FA002300
:10464000C821B7F805200091CDE90133194620466D
:1046500000F032FA01200DE0A3681BB9402001F000
:1046600019FDA060B7F80780A8444545C7E905587B
:1046700002D30020B54627E729464022A06804F06F
:10468000A3FBA368002583F83F5007F11400FFF750
:10469000CFFD036843451BD2786920B1BB699842BE
:1046A00014D204F00BFB85B2206803F013F92368E1
:1046B000A2685A631D870023637701F011FAA0F501
:1046C0009C500838C4E903006061C3E72846EAE764
:1046D0005025E9E77B68B7F80720C3F30F2363830E
:1046E00029462046FFF7E2FD00236383B2E7214B12
:1046F0009845F9D107F11401384601F0F4F9F3E7D0
:104700001D4B984521D003F19F6303F5003303F55A
:10471000807398451FD003F16E4303F5302303F5F2
:1047200086739845E0D107F11401384601F0DBF9B2
:10473000DAE707F11401384601F0D5F9D4E707F1BB
:104740001401384601F0CFF9CEE707F114013846DD
:1047500001F0C9F9C8E707F11401384601F0C3F9BF
:10476000C2E707F11401384601F0BDF9BCE700BF0C
:10477000766673006462670061636F6E2DE9F041D5
:1047800004468CB00D46FFF73DFD637F022B00F021
:10479000A880237F628B0133DBB223770AB1012526
:1047A00016E0022BFBD8206802F0B2FEB8B125B9A2
:1047B000206803F035F8002811DD2046FFF776FE6B
:1047C00005460028F4D1206803F084F801F08CF944
:1047D000237F013B237728460CB0BDE8F08101F030
:1047E0007FF90646206802F093FE677F012F054699
:1047F00029D120B966612046FFF74EFDE8E7E3685E
:104800004FF21862F31A934204D92046FFF744FD91
:104810000025DDE74AF6C872934203D82369F31AEC
:104820009342BCD9636941F27072F31A9342B6D9CC
:104830000023CDE9013300931A460621204600F0FB
:104840003BF96661ABE7002FA9D16269B21A40B1AA
:1048500041F270739A42A2D9206803F03BF867775F
:10486000D6E741F288339A4299D9206803F032F8AA
:10487000D4F800C0DCF834E0BCF83880BEF1000F9A
:104880000BD02B4642467146604603F081F8431E2A
:104890005D425D418DB966619AE7134B06930CF159
:1048A00020070FCF07AD0FC53B682B7042467346FC
:1048B00006A9604602F039FFE9E76368059301261F
:1048C0001846268304F078FA0022CDE90122059BE0
:1048D000009032461D21204600F0EEF82369636106
:1048E00076E7002577E700BF18960D002DE9F04127
:1048F00015468CB00446043540F6B8300F4698464D
:1049000001F0ECF80FCD01AE0FC62B683370676075
:1049100001F0E6F8A0F59C50083801AFC4E90300A7
:1049200060610FCF07AE0FC63B68337007AF0FCF84
:1049300025684FF0000CC5F834C0A5F83880203544
:104940000FC533682B70664644F24F67206802F04B
:10495000C1FF667701F0C4F80546637F012B0CD0D8
:1049600001F0BEF8401BB84204D800212046FFF7F2
:1049700005FFF2E7637F012BE8D10CB0BDE8F081C1
:1049800030B597B002F07EFC4FF4165102F06EFC89
:10499000A2230093AC22EA23A7210DA802F0FAFB80
:1049A00042F282330DAA38493848FFF79FFF0121B0
:1049B000072003F097F900244FF4806500210E20B2
:1049C00003F090F9324B334933480222CDE90045D8
:1049D00001F044F9314B32492F480222CDE900451C
:1049E00001F03CF92F4B30492B480222CDE900451C
:1049F00001F034F903F008FA01462C4800F0AAFB54
:104A00002A4800F05DFB294800F037FB03F0FCF971
:104A10000146264800F09EFB28B902F033FC2449E9
:104A200002F029FAFEE701F09FFF01F0BDFF0DA89B
:104A300001F0CFFE1F4903A801F032FE03A908A828
:104A400001F02EFE08A801F038FE054608A89DB921
:104A500001F035FE0095ADF80A0002230DF10A02BF
:104A600003210DA801F0AAFE01F07EFF00220DA98E
:104A700001F0BAFF17B030BD01F026FE00940246E7
:104A800010230721EDE700BF3C8F0D001CE503203C
:104A9000B9400D005D8F0D0030E6032061410D002F
:104AA000658F0D0081410D006D8F0D001CE6032008
:104AB000758F0D003CE503202DE9F04F83B000AF6A
:104AC000044600683D6B884616469946EB4602F060
:104AD0001FFD00287FD0B8F11D0F04D84C4B23FADE
:104AE00008F3DB0702D4637F012B74D146B9668BD0
:104AF00036B9238B01339BB2002B71D02383268BD5
:104B0000A8F10C03082B16D8D4E90323934238BF2D
:104B1000134603F1420A00F0E3FFAAEB000000286D
:104B200060DB00212046FFF729FE00F0D9FFAAEB49
:104B300000000028F5DAB9F1000F5AD06B1D7A6B2E
:104B4000002ABA6B08BF002203EB020A0AF107032E
:104B500023F00703ADEB030DBB6BC7F804D0EA18D5
:104B6000C2F3072376BA43EA02238DF80080ADF83A
:104B70000160ADF80330B9F1000F3CD0002D3AD000
:104B80002A4649460DF1050004F0B8F8681D7B6B14
:104B90003BB1BB6B2BB11A467B68796B184404F0B0
:104BA000ADF8002555452AD2AAEB05027B6820689E
:104BB000B2F5806F28BF4FF48062591902F092FC61
:104BC0000646002000F08AFFBEB9206802F082FE8F
:104BD000667700F089FF0C37DD46BD46BDE8F08FF3
:104BE00001238BE7217F0029A5D12046FFF7C6FDD1
:104BF000A1E70523A3E70520C9E73544D2E703D0A1
:104C00002046FFF749FBE6E700F06AFF2061E2E794
:104C10004500002000B595B004AB00220193492364
:104C200000930292034B1121FFF746FF15B05DF888
:104C300004FB00BF98900D0070B52DED028BB0EE17
:104C4000408AF0EE608AADF5846D08AB002405461D
:104C50000E46059305A84FF480631349CDE906433A
:104C6000FFF79EFA314605A8FFF7F2FADDE90631B3
:104C700005980E4AC91A8DED008B184401F022FAEE
:104C8000431C069803440693013B0093CDE901447D
:104C9000059B224614212846FFF70EFF0DF5846D73
:104CA000BDEC028B70BD00BF9C8F0D009F8F0D006F
:104CB00070B5ADF5856D002405920AAA05460E462D
:104CC000079207A84FF480621149CDE90842FFF727
:104CD00067FA314607A8FFF7BBFADDE90801079E2E
:104CE000059B0C4A091A304401F0ECF9431C089862
:104CF00003440893013B0093CDE90144079B2246FE
:104D000014212846FFF7D8FE0DF5856D70BD00BF54
:104D10009C8F0D00A58F0D007FB500213F48FFF748
:104D20002DFD3F4800F067FD3D4800F08CFB00285A
:104D300045D001F019FE01F06AFE00283FD0394E3F
:104D4000394D3648394C96ED000B0021FFF774FFC2
:104D50002A6832480121FFF7ABFF22682F48022161
:104D6000FFF7A6FF96ED000B0621684601F072FBE7
:104D7000009A2F492A4800F0E2FC684601F0E6FA62
:104D800029680A22684601F052FB009A2949244802
:104D900000F0D5FC684601F0D9FA21680A2268467D
:104DA00001F045FB009A24491D4800F0C8FC684604
:104DB00001F0CCFA4FF47A7002F0C4F81DE0184804
:104DC00000F041FBD8B9684601F054F90099144845
:104DD00000F02AFC684601F0B9FA1849104800F0C2
:104DE00052FE13490E4800F04EFE12490C4800F0E6
:104DF0004AFE11490A4800F046FE04B070BD01F0B9
:104E0000B3FD01F004FE0028F7D10D4A0B49044818
:104E100000F095FC4FF4FA60CEE700BF1CE50320DC
:104E2000B8E5032028E6032018E60320B4E50320B4
:104E3000A88F0D00BA8F0D00CC8F0D00DD8F0D00F7
:104E4000F58F0D0073B51F4D1F4E0021012001F09D
:104E50008DF82846002402F087FD05F11C0002F0C1
:104E600055F96C632C8732461849284602F0F4FF46
:104E7000174B18499C61C3E90054174D9C83C3E943
:104E80000244C3E9044440F25B72144B0094284688
:104E900000F0D0F932461249284602F0DDFF1148F1
:104EA00000F032F81049114801F07CFC104911481B
:104EB00001F078FC1049114802B0BDE8704001F0E3
:104EC00071BC00BF50E5032018E50320D1410D005F
:104ED0001CE5032012900D00B8E50320B7400D003B
:104EE0008D5A0D001CE6032021900D003CE50320A7
:104EF00046900D008CE503206B900D00A0E503208B
:104F00000368C9B29B681847704710B50446602112
:104F1000006802F0CFFA206802F0D4FAB0FA80F00C
:104F2000400910BD38B505460C460068602102F006
:104F3000C1FA2868036821469B68984728680021C1
:104F400002F0BCFA08B1002038BD286802226021B6
:104F500002F0ADFA286803681B6998470028F2D070
:104F6000286803685B6998470446286803685B699A
:104F70009847E4B244EA002080B2E5E70821FFF751
:104F8000D1BF0921FFF7CEBF0C21FFF7CBBF70B512
:104F900004460E4600686021154602F08BFA206830
:104FA000036831469B689847E9B22068FFF7A8FF7D
:104FB000290A2068FFF7A4FF206802F083FAB0FAFC
:104FC00080F0400970BD70B504460D461646FFF7E7
:104FD000A9FF00F47F4040EA060229462046BDE8CA
:104FE0007040FFF7D4BF70B504460D461646FFF774
:104FF00099FFC0B240EA062229462046BDE870402B
:10500000FFF7C5BF08B5FFF78DFFC0F3072008BD48
:105010002DE9F04104469DF818700D469846164655
:105020006AB1FFF77FFFC0B200EA080343EA070254
:105030002946204636B1BDE8F041FFF7C4BFFFF76F
:10504000E1FFF1E7BDE8F041FFF7CDBFB1F5A07F8B
:1050500007B50ED29F290ED84F298CBF40230023BD
:10506000009301223F230321FFF7D2FF03B05DF835
:1050700004FBC023F4E78023F2E707B50021009189
:10508000FE230122FFF7C4FF03B05DF804FB0729EC
:1050900007B50FD803290FD810D002290CBF04235D
:1050A000002300930122F1230321FFF7B1FF03B096
:1050B0005DF804FB0E23F4E70C23F2E70823F0E786
:1050C00007B5002300930122FE230321FFF7A0FF71
:1050D00003B05DF804FB07B50F298CBF082300233C
:1050E00000930022F7230321FFF792FF03B05DF83E
:1050F00004FB07B5022300930122EF230421FFF7ED
:1051000087FF03B05DF804FBC72907B516D8B3299C
:1051100016D89F2916D88B2916D8772916D863292F
:1051200016D84A2994BF002101210091F8230022BA
:105130000421FFF76DFF03B05DF804FB0721F4E7DE
:105140000621F2E70521F0E70421EEE70321ECE771
:105150000221EAE738B504460846216002F078F9F2
:105160002046FFF7D2FE054610B90025284638BD77
:105170002046FFF709FFB0F5C37FF6D12046C821CE
:10518000FFF7C2FF20462821FFF760FF20460821D5
:10519000FFF77DFF10212046FFF79DFF2046FFF718
:1051A000A8FF2046FFF78CFFE0E791F85C3010B5D0
:1051B0000446016013B1886D00F060FD204610BD0B
:1051C00010B5036893F85C20044612B1986D00F0A6
:1051D0005DFD204610BDF8B51F469DF824300446FD
:1051E0000D4616462BB1012380F85C30583000F094
:1051F0003DFD089B23630023636306B1A66425B1CC
:10520000294604F1380001F000F9069B2365079B4D
:10521000E069A4F84C70FF2BB8BFFF23A4F854300A
:1052200008B1FEF73EFFB4F85400FEF736FFE06128
:10523000F8BD00002DE9FF410446002517469846B9
:105240000E4602F091FB0D49E56104F1380001F0D2
:10525000C8F89DF82830A564CDE90283FF220F230A
:10526000CDE90032204684F85C503B462A46314660
:10527000FFF7B1FF204604B0BDE8F081B8950D00FE
:1052800010B50446204602F0CBFA0028FAD020469A
:1052900002F0FFF9C0B210BD2DE9F0470546C46920
:1052A0000F46FFF7EDFF2070EB6993F800A04FF079
:1052B00001090AF0F00A4FF000084C462846FFF7B3
:1052C000DFFF2646EB69985500F07F0313FB09F3D7
:1052D000984401340306A4B21FFA88F84FEAC919AA
:1052E000ECD4631EBAF1300F3B7024D12846EF692D
:1052F000FFF7C6FF38552846EF69F41CFFF7C0FFDB
:105300000236B6B2A4B2B8550226B6B2B1462746A6
:10531000C14512D22846FFF7B3FFB5F85430BB425F
:1053200088BFEB6909F1010988BFD8550137BFB2C1
:105330001FFA89F9ECE70026E7E7A8EB0600B0457D
:105340002CBF064600263444B5F85400A4B2A0424F
:105350002CBF20460020BDE8F087F7B58C461E46DE
:105360001D4607460023AE4602A805F07F01BEF1A8
:105370007F0F03F10104034488BF41F08001BEF1B7
:105380007F0F4FEAD515E4B203F8041C10D8C4F11E
:105390000403D11802F803C0C4F10503134401A8A3
:1053A0000532934206D010F8015B03F8015BF8E781
:1053B0002346D8E7721C2244384602F093F805468B
:1053C00000F010FC621C78623244A8B2131A5842F2
:1053D000584103B0F0BD13B50446014601A8FFF7DC
:1053E000E4FEE369E0221A70E36900225A70E16981
:1053F0000222204602F076F8204602F06BFA00F016
:10540000F1FBC4E9090001A8FFF7DAFE02B010BD04
:105410000233F0B5044698B20023CD5C55B1B4F820
:105420005460864203F1010704D9461C15543B46DB
:10543000B0B2F2E799B2441A2244091202F8021CEF
:1054400002F8013CF0BD38B5044602F061F80028CE
:1054500014BF0125002502D1204602F03BFA284660
:1054600038BD00002DE9F04788B00446DDF84080E3
:105470009DF850A0894617461E46FFF7E4FF0546F3
:10548000002840F0CB80214601A8FFF78EFEA16CDA
:10549000002940F08780B4F84C20A16B2B462046B1
:1054A00002F076FA002879D0012323849DF8543045
:1054B000E269042B40F08180594B186899889B79E8
:1054C000ADF80C108DF80E300290C2F805009DF872
:1054D0000E30BDF80C10A2F80910D3720C23B8F1ED
:1054E000000F7FD09DF848009DF84420400140EA1D
:1054F000C20040F00600C0B2BAF1000F01D100F0C6
:10550000FD001FB1002E6FD140F08000E269D05441
:10551000226DE169581C12120A549A1CE169206D2F
:1055200088540333E26949462046FFF771FF03467A
:10553000B8F1000F0BD0E26941462046FFF768FF43
:10554000E269139903462046FFF762FF034667B1FD
:10555000E26939462046FFF75BFF03462EB1E26958
:1055600031462046FFF754FF0346053BE2699BB2F4
:1055700010212046FFF7F1FE00F034FBC4E90900DA
:105580004FF47A76204602F04BF980BB00F02AFBFC
:10559000A36AC01A236D73439842F3D9204602F0E0
:1055A00099F934E002A801F001FEB4F84C202B4632
:1055B00002A9204602F0B9F874E71A4B1868596836
:1055C0001B7A0DF1080CACE803008CF8003002AB3C
:1055D00003CBC2F80500C2F809109CF800305373E1
:1055E0000E237CE7022087E740F0C0008EE702A987
:1055F0002046FFF751FE0428D0D1E369DE78002E63
:10560000CCD100F0EFFA0125A06284F82C6001A84B
:10561000FFF7D6FD284608B0BDE8F0870025F9E77A
:10562000E3900D00EA900D007FB501230422CDE93F
:1056300004320023CDE90233CDE900331A46FFF7E7
:1056400011FF07B05DF804FB2DE9F74FDDF83C8052
:105650009DF834509DF8389004468B4616461F46F8
:10566000FFF7F1FE8246002851D0214601A8FFF73E
:105670009CFDB4F85420E069002103F067FB05238A
:10568000E26959462046FFF7C3FE6B1E012B15D871
:10569000218CE369013189B2218409121954421C19
:1056A000E369218C92B20230995480B2B8F1000FB4
:1056B00004D0238C5A1C2284A8F8003000210B1837
:1056C0008F42E2699BB20AD9B4F854C09C4506D90E
:1056D00016F801C002F803C0013189B2EFE79DF866
:1056E000301000290CBF30213121B9F1000F01D059
:1056F00041F00801022D0ED141F00401053B9BB29F
:105700002046FFF72AFE824601A8FFF759FD5046C2
:1057100003B0BDE8F08F012D08BF41F00201EDE7B5
:105720001FB5089C0394002402949DF81C4001942A
:105730009DF818400094FFF787FF04B010BD30B506
:1057400087B0044610460591049203F035FB00250E
:105750000346CDE90155DDE9042100952046FFF718
:10576000DFFF07B030BD73B504460E46FFF76BFE92
:105770000546C8B1214601A8FFF717FDE36962227B
:105780001A70E36902225A70E36932129A70E3696F
:10579000DE70E1690422204601F0A4FE051E01A886
:1057A00018BF0125FFF70CFD284602B070BD73B588
:1057B00004460E46FFF747FE0546C8B1214601A83C
:1057C000FFF7F3FCE36972221A70E36902225A7050
:1057D000E36932129A70E369DE70E16904222046BF
:1057E00001F080FE051E01A818BF0125FFF7E8FCA7
:1057F000284602B070BD2DE9F04F2DED028B87B029
:1058000000AF0446FFF71FFE8146F8B1214607F1BD
:105810001400FFF7CAFC00F0E5F9226D4FF47A732B
:105820005343A26A821A9A42064603D8626A821ACF
:10583000934221D294F82C307BB1204602F04AF8F2
:105840004FF0000907F11400FFF7BAFC48461C3777
:10585000BD46BDEC028BBDE8F08FE269C02111703E
:10586000E2695370E1690222204601F03BFEC4E97F
:105870000966012384F82C30204601F0D1FF00286E
:10588000E0D007F113012046FFF706FD834600280C
:10589000D8D0E369A662197801F0F002302A7FD1EE
:1058A000D4F830A0BAF1000FCCD097F813C06A46F4
:1058B00008EE102A03EB0C025578917801EB0521D4
:1058C0008DB205F108026946D208A1EBC2029546E5
:1058D0000CF10302FA6003EB020E0DEB05026846C1
:1058E000C7F808D07A60D7E901218A4206D00A4673
:1058F0001EF8018B02F8018BBA60F4E700224255D2
:1059000093F80080F96808F00608ABEB0C02033A44
:10591000B8F1020FA2EB0502294425D113F801E0EA
:105920001944023A91F801B00CF1050129441944D7
:105930000BEB0E2BD047E36940221A70E3691FFA84
:105940008BFB83F80180E3694FEA2B229A70E369AD
:1059500083F803B0E1690422204601F0C3FD6662CA
:1059600018EE103A9D466DE7B8F1040F15D113F803
:1059700001E01944023A91F801B00CF10501294403
:1059800019440BEB0E2BD047E36950221A70E369E0
:1059900002221FFA8BFB5A70D5E71944D047DFE784
:1059A000502A08D19A78D97801EB022189B2204691
:1059B000FFF7D9FE46E7402A12D1626B002A3FF476
:1059C00041AFBBF1040F7FF43DAF11F0060F7FF440
:1059D00039AF9978D87800EB012080B2904731E751
:1059E000602A08D19A78D97801EB022189B2204641
:1059F000FFF7DDFE26E7702ADFD0902A3FF422AFC2
:105A0000C02A0AD1D0221A70E36900225A70E169D3
:105A10000222204601F066FD14E7D02A04BF0023CD
:105A200084F82C300EE7F7B504460F461646FFF70C
:105A30000AFD054610B3214601A8FFF7B6FB238CEB
:105A400001339BB2EBB12384238CE2691B125371A7
:105A5000E369228C9A71E269072339462046FFF7F1
:105A6000D7FCE3691E54043883B2E26982212046E0
:105A7000FFF773FC054601A8FFF7A2FB284603B019
:105A8000F0BD0123DFE70022FFF7CDBF38B50546A3
:105A9000FFF7D9FC10B12846FFF79DFCE86908B173
:105AA000FEF7FFFA05F1380000F050FCAC690A4B34
:105AB0002B607CB16368013B63605BB9236820465F
:105AC0009B689847A368013BA3601BB923682046E5
:105AD000DB689847284638BDE8960D0001F032BAD9
:105AE00000F080B8704770477047000003065ABF47
:105AF000024B53F820000020704700BFF4900D00C7
:105B000003065ABF024B53F820000020704700BF25
:105B1000F4920D0008B5024B1B689B68019308BD09
:105B20006802030008B5024B1B68DB68019308BDDF
:105B30006802030008B5024B1B685B68019308BD4F
:105B40002C02030008B5024B1B689B68019308BD3B
:105B50002C02030008B5024B1B68DB68019308BDEB
:105B60002C02030008B5024B1B681B69019308BD9A
:105B70002C02030008B5024B1B685B69019308BD4A
:105B80002C02030008B5024B1B689B6A019308BDF9
:105B90002C02030008B5024B1B681B6B019308BD68
:105BA0002C02030008B5024B1B689B6F019308BDD4
:105BB0002C02030008B5024B1B685B69019308BD0A
:105BC0006C02030008B5024B1B685B68019308BDBB
:105BD0001802030008B5024B1B68DB68019308BD7F
:105BE0001802030008B5024B1B685B69019308BDEE
:105BF0001802030008B5024B1B689B68019308BD9F
:105C00007802030008B5024B1B681B6D019308BDA9
:105C10007802030008B5024B1B689B6D019308BD19
:105C20007802030008B5024B1B681B6E019308BD88
:105C30007802030008B5034B1B68D3F89830019332
:105C400008BD00007802030008B5034B1B68D3F8B9
:105C5000F030019308BD00007802030008B5024B44
:105C60001B685B68019308BD4802030008B5024B3E
:105C70001B681B6B019308BD4802030008B5024B6B
:105C80001B689B6B019308BD4802030008B5024BDB
:105C90001B681B6C019308BD4802030008B5024B4A
:105CA0001B685B6C019308BD4802030008B5024BFA
:105CB0001B689B6C019308BD4802030008B5024BAA
:105CC0001B68DB6C019308BD4802030008B5024B5A
:105CD0001B685B6D019308BD4802030008B5024BC9
:105CE0001B685B69019308BD6402030008B5024BA1
:105CF0001B681B6A019308BD6402030008B5024BD0
:105D00001B689B6A019308BD6402030008B5024B3F
:105D10001B681B68019308BD3C02030008B5024BD9
:105D20001B68DB68019308BD3C02030008B5024B09
:105D30001B681B69019308BD3C02030008B5024BB8
:105D40001B685B69019308BD3C02030008B5024B68
:105D50001B689B69019308BD3C02030008B5024B18
:105D60001B68DB69019308BD3C02030008B5024BC8
:105D70001B681B6A019308BD3C02030008B5024B77
:105D80001B689B6A019308BD3C02030008B5024BE7
:105D90001B68DB68019308BD2802030008B5024BAD
:105DA0001B689B69019308BD2802030008B5024BDC
:105DB0001B68DB69019308BD2802030008B5024B8C
:105DC0001B681B6A019308BD2802030008B5024B3B
:105DD0001B685B6A019308BD2802030008B5024BEB
:105DE0001B689B6A019308BD2802030008B5024B9B
:105DF0001B68DB6A019308BD2802030008B5024B4B
:105E00001B681B6B019308BD2802030008B5024BF9
:105E10001B685B6B019308BD2802030008B5024BA9
:105E20001B681B6C019308BD2802030008B5024BD8
:105E30001B681B6D019308BD2802030008B5024BC7
:105E40001B689B69019308BD3802030008B5024B2B
:105E50001B68DB69019308BD3802030008B5024BDB
:105E60001B681B6A019308BD3802030008B5024B8A
:105E70001B689B6A019308BD3802030008B5024BFA
:105E80001B681B6B019308BD3802030008B5024B69
:105E90001B689B6B019308BD3802030008B5024BD9
:105EA0001B68DB69019308BD3002030008B5024B93
:105EB0001B681B6A019308BD3002030008B5024B42
:105EC0001B681B68019308BD4C02030008B5024B18
:105ED0001B685B68019308BD4C02030008B5024BC8
:105EE0001B681B69019308BD4C02030008B5024BF7
:105EF0001B685B69019308BD4C02030008B5024BA7
:105F00001B689B69019308BD4C02030008B5024B56
:105F10001B68DB69019308BD4C02030008B5024B06
:105F20001B681B6A019308BD4C02030008B5024BB5
:105F30001B685B6B019308BD6002030008B5024B50
:105F40001B681B6D019308BD6002030008B5024B7E
:105F50001B685B68019308BD2002030008B5024B73
:105F60001B685B69019308BD2002030008B5024B62
:105F70001B68DB6A019308BD2002030008B5034BD0
:105F80001B68D3F88830019308BD0000200203008D
:105F900008B5034B1B68D3F89430019308BD00008B
:105FA0002002030008B5024B1B685B68019308BD23
:105FB0004002030008B5024B1B689B68019308BDB3
:105FC0004002030008B5024B1B68DB68019308BD63
:105FD0004002030008B5024B1B681B69019308BD12
:105FE0004002030008B5024B1B685B69019308BDC2
:105FF0004002030008B5024B1B689B69019308BD72
:106000004002030008B5024B1B68DB69019308BD21
:106010004002030008B5024B1B681B6A019308BDD0
:106020004002030008B5024B1B681B6B019308BDBF
:106030004002030008B5024B1B685B6B019308BD6F
:106040004002030008B5024B1B681B6C019308BD9E
:106050004002030008B5024B1B685B6C019308BD4E
:106060004002030008B5024B1B689B68019308BD02
:106070004402030008B5024B1B68DB69019308BDAD
:106080004402030008B5024B1B68DB6B019308BD9B
:106090004402030008B5024B1B681B68019308BD4E
:1060A0001C02030008B5024B1B685B68019308BD26
:1060B0001C02030008B5024B1B689B68019308BDD6
:1060C0001C02030008B5024B1B68DB69019308BD85
:1060D0001C02030008B5024B1B68DB6A019308BD74
:1060E0001C02030008B5024B1B68DB6B019308BD63
:1060F0001C02030008B5024B1B685B6C019308BDD2
:106100001C020300002240681146FFF783BF0022F3
:1061100040681146FFF78EBF40680022FFF782BF3C
:106120004068002281F00101FFF76CBF0023406846
:106130001A461946FFF75EBF002340681A46194603
:10614000FFF750BF002240681146FFF743BF00220F
:1061500040681146FFF72EBF406800220221FFF77A
:1061600031BF002340681A46FFF71CBF024B0322D1
:106170005A60024A1A60704740E60320FC940D0002
:1061800010B5044608462170FFF788FE00236360BF
:10619000204610BD10B50446006818B1FFF782FF15
:1061A0000023236010BD10B50446FFF7F3FF20461F
:1061B00010BD000010B5094B094C022200201A60E6
:1061C000084B2060A080A071A360FFF7BFFE2046AF
:1061D000054A0649BDE8104001F03EBE54E60320E2
:1061E00048E603200000FFFF18E50320A7610D002B
:1061F00010B5044602F0E0FD013823182046834222
:1062000006D90278197800F8011B03F80129F6E78E
:1062100010BD70B50C46911E2229054622D8204695
:106220006DB1B5FBF2F602FB1655E9B2092D94BF2C
:1062300030315731C9B200F8011B3546F0E702464C
:1062400023443021934202D902F8011BFAE71A1ABB
:10625000834238BF0022002383542046FFF7C8FF43
:10626000204670BD0020FCE708B50123FFF7D1FFF1
:1062700008BD70B586B0064601AD684600F096FFD1
:106280000FCD341D0FC42B682370304606B070BD8F
:106290002DE9F04757EC106B80460C4610EE100AC3
:1062A00000220023394602F023FB28B107F1004306
:1062B0001F462D2304F8013B00234FF001090A2259
:1062C000D9B2884503D902FB09F90133F8E74846FA
:1062D00002F032F832463B4602F098F806460F4686
:1062E00002F066FB05468A4602F05AF802460B4663
:1062F0003046394601F0D2FE134B002202F00CFB6F
:1063000010B101354AF1000A4A462846D3175146D2
:1063100002F036FB0123154621460A22FFF779FFDA
:10632000B8F1000F0DD0204602F046FD2E232118B3
:1063300023540A22434628460131BDE8F047FFF7BF
:1063400068BFBDE8F08700BF0000E03F10B504461D
:106350000068FFF7A7FE204610BD10B50446006890
:1063600008B1FFF79FFE0023C4E90133236010BD8D
:1063700038B504460D4600680131FFF79BFE10B1A9
:10638000C4E90005012038BD10B50368044623B1F7
:1063900043688B4201D3012010BD2046FFF7E8FF80
:1063A0000028F9D0A368002BF5D122681370F2E71A
:1063B00037B50D46114601920446FFF7E5FF019AF5
:1063C00028B92046FFF7C9FF204603B030BDA260C0
:1063D0002946206802F092FC2268A3680021D1546B
:1063E000F2E7002313B5C0E900330446836003736A
:1063F00041B10846019102F0DFFC019902462046B6
:10640000FFF7D6FF204602B010BD13B5044659B1C0
:106410000846019102F0D0FC019902462046FFF7A0
:10642000C7FF204602B010BDFFF797FFF9E710B590
:1064300004468AB00023C4E90033A36023730846EE
:1064400001A9FFF711FF01A92046FFF7DEFF204653
:106450000AB010BD10B504468AB000230846C4E94E
:106460000033A360237301A9C0B2FFF711FF01A994
:106470002046FFF7CAFF20460AB010BD7047000053
:10648000064B994210B500F10C0405D0084601F006
:10649000EFFC002808BF0024204610BDD8950D0051
:1064A00010B53021044601F0DCFC204610BDFDF79C
:1064B000F6BD10B5036804469B689847A368013B86
:1064C000A3602BB923682046DB68BDE8104018475D
:1064D00010BD10B50446006808B1FFF7E7FB204681
:1064E00010BD000010B5044B04461868FFF7E6FB2A
:1064F0000123237010BD00BF5CE6032010B5044BE0
:1065000004461868FFF7E2FB0023237010BD00BFAC
:106510005CE60320F0B50025EC1C8C420DD86E1C07
:10652000445D875D974205D12644B14205D31D6085
:10653000601CF0BD01342544EEE70020F9E72DE9A9
:10654000F34704469DF828701E46894601AB9046E5
:106550000A46016AFFF7DEFF256AB31C17BB08B3C2
:106560005F193F1A1F2F19D8DDF8049009F1020AAC
:10657000A5EB0902121A00EB090106EB0A0092B220
:106580002144204402F0C8FB731C04F80930324651
:10659000414604EB0A0002F0B1FB2762206A02B018
:1065A000BDE8F0872B441F2BF8D8731C6355A81C3B
:1065B00025442062324685F801904146204402F08D
:1065C0009DFB236A33442362E8E710B583680446E1
:1065D00013B1032201469847204610BDA0F13003B5
:1065E000DAB2092A01D818467047A0F16103052BD9
:1065F00001D857387047A0F14103052B94BF3738B5
:106600004FF0FF30704710B5002304460370FFF7CA
:1066100069FF204610BD10B5037804460BB1FFF7A3
:106620006DFF204610BD82B00346086849686A467F
:1066300003C26A4603CA18601846596002B0704720
:1066400008B582798B799A4206D1062202F048FB7E
:10665000B0FA80F0400908BD0020FCE74FF0FF339E
:106660000360838000207047002108B5016041600D
:106670000246FFF7F3FF9171104608BD0122026147
:10668000064A11680160516841601189927A8272EC
:1066900000220181C0F80B20C2737047E0950D0005
:1066A00010B50B69036101F11002034651F8044B68
:1066B00043F8044B9142F9D110BD00697047427B09
:1066C000007B40EA022070477047000001232DE95B
:1066D000F3410361324B1A6802605A684260002538
:1066E0001A899B7A028104468372C0F80B50C573E5
:1066F0000E4621B32421304602F079FB042821D133
:10670000ADF8045001AFB51C063615F8020CFFF7C2
:1067100065FFB0F1000810DB15F8010CFFF75EFF14
:1067200000280ADB023540EA0810AE4207F8010BE8
:10673000EBD1BDF804305BBAA3810023236102B022
:10674000BDE8F08110272421304602F050FBA8421A
:1067500006D827440023BC42F1D007F8013DFAE7F0
:10676000002FECD0705DFFF739FF030615D4000150
:10677000013F5FFA80F804F807802421304602F0D8
:1067800036FB0135A84208D9705DFFF727FF40B2FC
:106790000028A4BF40EA0800E0550135D3E700BF58
:1067A000E0950D0013B504460191FFF767FF204601
:1067B0000199FFF78BFF204602B010BD30B49DF861
:1067C000085012B9006A30BC7047029530BCFFF720
:1067D000B6BE1FB50446024600F11F01002302F8B1
:1067E000013B9142FBD123620093062201238DF8E5
:1067F0000F2019460DF10F022046FFF7DFFF20465C
:1068000004B010BD73B50A460E4601AB016A0446DA
:10681000FFF780FE054678B10198226A4119121AE5
:106820002144521B204402F069FA206A401B206276
:1068300031462046FFF7E6FF02B070BD10B5D0E943
:10684000063203EBC2029342184606D0046824883D
:106850008C4203F10803F6D110BD0020FCE70000D4
:1068600070B50025056006463020FDF714FC04468F
:1068700088B10123C0E90133094B03604FF6FF7370
:1068800083810E30FFF7F0FEC4E90655C4E90855D0
:10689000C4E90A55A57574600C343460304670BD87
:1068A000C4950D0037B50D46044601A8FFF7ABFEB1
:1068B0002A6852F8023F23605368636001A8FFF71B
:1068C000AAFE204603B030BD30B5054687B00C4661
:1068D00001A8FFF798FE2A68236812881B889A424D
:1068E0000DD1294602A8FFF7DDFF214604A8FFF7D6
:1068F000D9FF04A902A8FFF7A3FE044600B90024AB
:1069000001A8FFF788FE204607B030BD10B5044649
:106910005420FDF7C0FB014660B10023C0E90033FD
:10692000C0E90233C0E90433C0E906330362C3623D
:10693000C363C364216019B9094A0A20FFF7F6FA54
:106940000020FFF757F920B1054A00210A20FFF780
:10695000EDFA216803480022FFF776F9204610BDC2
:10696000D55B0D00316C0D0010B50B4C2378BFF3D7
:106970005B8FDB070ED42046FDF795FB50B107482F
:10698000FFF7C4FF2046FDF793FB054A054903487E
:1069900001F062FA014810BD58E6032060E60320CA
:1069A00018E50320B36A0D0008B50020FFF722F9AF
:1069B00000EAE07008BD084611B90A46FFF722B99F
:1069C000096A0022FAE707B5084629B90A4603B062
:1069D0005DF804EBFFF71EB901210190FFF712FFEC
:1069E00001980022016AF2E738B504461546FFF720
:1069F000E2FF00280ADB29462046FFF7E4FF0028D3
:106A000004DBBDE838400020FFF70CB938BD03684F
:106A1000D8690028D4BF0020012070470B680360AC
:106A200013B15A6801325A60704710B551F8043BEF
:106A3000044640F8043BFFF7F1FF204610BD10B5B7
:106A40000446006828B14368013B43600BB9FFF777
:106A500030FD204610BD70B5D0E90053044605EB6B
:106A6000C306AE4204D0281DFFF7E9FF0835F8E75A
:106A70002068FFF717FB204670BD70B5D0E90053C2
:106A8000044605EBC306AE4204D0281DFFF7D7FF2E
:106A90000835F8E72068FFF705FB204670BD10B504
:106AA00004462430FFF7E9FF04F11800FFF7D3FF95
:106AB00010BDF8B50468064624B304F14400FFF79E
:106AC00084FD04F13400FFF780FD04F12400FFF79A
:106AD0007CFDD4E9065305EBC307AF4204D0281D63
:106AE000FFF7ADFF0835F8E7A069FFF7DBFA04F11F
:106AF0000C00FFF7C2FF2046FFF7ADFF54212046F0
:106B000001F0AFF93046F8BD826810B50AB901F05E
:106B1000ACF9BDE81040C36818478842F8B5044690
:106B20000D46164614D9904213D2A2F10806751AE2
:106B3000A1F108072C44B74218D01CB131462046B9
:106B4000FFF773FF301DFFF77AFF083E083CF2E7BE
:106B50000CD0B5420AD01CB129462046FFF765FF8C
:106B6000281DFFF76CFF08350834F2E7F8BD2DE962
:106B7000F041D0E900430546884604EBC307A7422D
:106B800003D100263046BDE8F08141462046FFF79C
:106B90009BFE064608B90834F1E7002CF1D0201D11
:106BA000FFF74DFFD5E9003204F1080103EBC20203
:106BB0002046FFF7B2FF6B68013B6B60E2E7F7B579
:106BC000044646686846FFF730FFD4E901739F42E8
:106BD00012DB0137002F29DDF800FFF75BFA0546CD
:106BE000F0B1D4E9001201EBC202FFF796FF206872
:106BF000FFF758FA2560A7602368626803EBC606B2
:106C000003EBC202314606F10800FFF786FF1EB112
:106C100069463046FFF709FF636801336360012569
:106C200001A8FFF70CFF284603B0F0BD0025DEE702
:106C30002DE9F04105468EB003A80C46FFF7E3FCB2
:106C40002E68042E6BD007D8032E28D003A8FFF798
:106C5000E2FC0EB0BDE8F081A6F10C03032BF5D8E1
:106C6000A9892046FFF7EAFD07460028EED0E36C2D
:106C7000002BEBD01022002107A802F067F80D2EA0
:106C800006978DF81C6040F092806B68099306238C
:106C90000893236D06A904F144009847D6E704A899
:106CA000FFF7DEFD049BAA891A8069680498083101
:106CB0000230FFF7B8FC04A906A8FFF7B6FE06A944
:106CC00004F11800FFF77BFF054607A8FFF7B7FEA2
:106CD000202306938DB93E4B3E49009332202B462C
:106CE00006AA0795FFF72AF9049B29461888FEF79C
:106CF000A1FF05A8FFF7A3FEA8E7374A00920023EB
:106D00003449079306AA0120FFF718F9E36A002B1C
:106D1000EFD004A904F12400FFF7F6FEE9E7A98902
:106D20002046FFF78BFD064600288FD00568D5E981
:106D300006314FF6FF722A8003EBC101994203D05E
:106D400053F8080B4280F9E7D5E9037307EBC30852
:106D5000B84504D0381DFFF772FE0837F8E7002366
:106D60002B61D5E9067307EBC308B84504D0381D7D
:106D7000FFF765FE0837F8E70023EB61AB72E36BC2
:106D800023B1314604F13400FFF7BEFE0023202278
:106D9000CDE90623114A00920E4906AA0120FFF709
:106DA000CDF8314604F11800FFF7E1FE4EE70F2E53
:106DB0007FF46FAF6B6809932B7A03F00102C3F382
:106DC00040038DF829308DF82820082360E700BFA4
:106DD00057950D0030950D007D950D009A950D008D
:106DE00010B5064C002320462360FEF757FF2046CF
:106DF000034A0449BDE8104001F02EB85CE60320C8
:106E000018E50320D3640D00F8B506460D468F182B
:106E10000024BD420CD0336815F8011B9B68304636
:106E20009847031E01DB1C44F3E7002C08BF1C46F7
:106E30002046F8BD13B50446084659B1019101F04A
:106E4000BBFF23680199DB680246204602B0BDE81B
:106E50001040184702B010BD03689B68184738B54A
:106E60000D210546FFF7F8FF0A2104462846FFF7E3
:106E7000F3FF204438BD38B50546FFF7DBFF044675
:106E80002846FFF7ECFF204438BD30B58BB0002317
:106E90008DF82430012A98BF0A2209AC0D46B1FBB7
:106EA000F2F101FB125303F0FF03092B94BF3033BF
:106EB0003733DBB2AA4204F8013DEFD92146FFF790
:106EC000B9FF0BB030BD10B50446FEF78BFEE06095
:106ED000236820465B699847002808DAFEF782FE9F
:106EE000E368C01AA3689842F2D34FF0FF3010BD98
:106EF000F8B506460D4617460024BC4207D030467A
:106F0000FFF7E1FF031E02DB2B550134F5E72046B6
:106F1000F8BD002340681A461946FFF763B8000021
:106F2000014B024A1A60704764E60320F0950D0099
:106F3000024B1A68024B1A60704700BFACE4032092
:106F400068E603200021FFF709B810B50446FFF7F3
:106F50003CFB204610BD00000348044A04490023BE
:106F6000836000F079BF00BF6CE6032018E50320C2
:106F70004B6F0D00014B1860704700BFB0E4032059
:106F800008B50B4B43B100F07DF903681B699847C6
:106F9000002801DDAFF30080064B43B100F0F0F9AB
:106FA00003681B699847002801DDAFF3008008BD26
:106FB000000000000000000008B5FFF7E1FFFEF749
:106FC00011FE014B186008BDD8E703200248034AB0
:106FD0000349121A01F092BE00F4032004F40320C6
:106FE000C8990D0007B5002300931A466FF077018A
:106FF000FEF7CEFF03B05DF804FB000007B5438841
:107000000A2B08D0502B0BD1094B1B684BB103B096
:107010005DF804EB1847FFF7E5FF03B05DF804FBEC
:10702000002300931A466FF07701FEF7B1FFF4E7F3
:1070300080E6032038B5124C1248134D0021FFF7AB
:1070400059F82368AB42114B0CBF012200221A7081
:1070500002D0FFF7BBFF2560FEF7B4FD044601F048
:107060007DFE0B4B13B12046AFF300800021084892
:10707000FFF708F8BDE8384006480021FEF77EBF5C
:1070800000F40320756F0D001E1C279A7CE6032078
:1070900000000000FD6F0D00704710B51821044678
:1070A00000F0DFFE204610BDF0B5037D062B8DB04D
:1070B0000E4600F104074FF0000412D000F108055D
:1070C00015F8011D0A223046FFF7DFFEAF420444E7
:1070D00019D0002CF4D02E213046FFF7BDFE044419
:1070E000EEE72F236A4639460A208DF80040FEF766
:1070F000F5FD684601F060FE33680246DB686946CC
:1071000030469847044620460DB0F0BD10B5054BFB
:107110000446112240F8043B002101F017FE2046EE
:1071200010BD00BF18960D000346074A10B543F87E
:10713000042B01F1100251F8044B43F8044B914227
:10714000F9D10A781A7010BD18960D00037D042B32
:1071500004D14068003818BF01207047062B07D1C2
:1071600043683BB983682BB9C3681BB90069F1E771
:10717000002070470120704710B59DF8084044EA90
:10718000032343EA024242EA01610423416003759A
:1071900010BD000037B5044D05609DF818500095EE
:1071A000FFF7EAFF03B030BD18960D0013B5054B8D
:1071B0000360CB7800938B784A780978FFF7DCFF7F
:1071C00002B010BD18960D0041747047704708B5A5
:1071D0000021007CFEF792FE40EAE07008BD08B591
:1071E0000121007CFEF78AFE40EAE07008BD08B588
:1071F000007CFEF77BFE20EAE07008BD08B5007C4D
:10720000FEF76CFE20EAE07008BD13B50446007C72
:107210000191FEF76BFE0028019901DC607C20B132
:10722000207CFEF773FE20EAE07002B010BD007C07
:10723000FEF774BE10B51421044600F012FE20467D
:1072400010BD000010B54FF47A73044608460021C3
:10725000C4E90113044B23600123207463741146B5
:10726000FEF72CFE204610BD2C960D00007C00225F
:10727000FEF72CBE10B514220446002101F066FD75
:10728000204610BD10B5104C88B003A8FFF7F2FFE0
:107290002178BFF35B8F11F0010111D120460191DC
:1072A000FCF701FF019958B103AA0848FFF7CAFF8C
:1072B0002046FCF7FDFE064A0649044800F0CCFDD6
:1072C000024808B010BD00BF84E6032088E6032012
:1072D00018E50320CD710D0070474174704708B563
:1072E000007CFEF74BFD20EAE07008BD08B5007C8D
:1072F000FEF71CFD20EAE07008BD08B5007CFEF733
:1073000025FD40EAE07008BD08B5007CFEF716FDDB
:1073100040EAE07008BD007CFEF720BD37B5457C33
:1073200004462DB1207C03B0BDE83040FEF7F6BC2A
:10733000007C0191FEF722FD00280199F2DC28462D
:1073400003B030BD10B51421044600F08AFD20467C
:1073500010BD000010B54FF0000C04460846114661
:107360004FF47A72C4E901C2044A226001222074F7
:1073700062741A46FEF7CAFC204610BD5C960D00EA
:1073800013B50E4C2178BFF35B8F11F0010112D1C0
:1073900020460191FCF787FE019960B1084A094B2C
:1073A0000948FFF7D7FF2046FCF782FE074A084945
:1073B000054800F051FD044802B010BD9CE60320D2
:1073C000A0E6032024E70320A8E7032018E5032014
:1073D000D9720D007047F8B5064615460C468F1851
:1073E000BC4206D0336814F8011B9B6830469847AE
:1073F000F6E72846F8BD007C0022FEF7DFBC007CE3
:107400000021FEF7E3BC007C0021FEF7E7BC007C16
:107410000021FEF7EBBC007C0021FEF7EFBC10B5AD
:107420001421044600F01DFD204610BD10B54FF498
:107430007A73044608460021C4E90113034B236014
:1074400020741146FEF7EAFC204610BD8C960D0014
:107450000023007C1A461946FEF798BC7FB500222F
:107460001423CDE90122ADF804300B788DF80830F3
:107470004B680393CB680493007C0B7A059301A9B6
:10748000FEF7D4FC07B05DF804FB1FB5003B8DF898
:1074900000104FF06401039118BF01236946019267
:1074A0008DF80830FFF7DAFF05B05DF804FB012323
:1074B000FFF7EBBF007C0022FEF770BC007C0022CF
:1074C000FEF774BC0121FFF7F9BF13B503688DF80F
:1074D0000710DC6B01224FF0FF330DF10701A047CD
:1074E00002B010BD10B40368DC6B4FF0FF33A4464C
:1074F0005DF8044B604713B5134602688DF807101A
:10750000D46B0DF107010122A04702B010BD7047F6
:1075100038B543691A68002A054610DAB3F88620A0
:10752000B3F884309A420AD103681B69984704462D
:1075300028B92B682846DB6A9847204638BD0120C9
:10754000FCE743691868C043C00F704770470000EC
:10755000064B994210B500F10C0405D0084600F026
:1075600087FC002808BF0024204610BDD8950D00D8
:1075700010B5AC21044600F074FC204610BDFCF7A9
:107580008EBD2DE9F0414FF0000886B01D46C0F8D1
:10759000048004460E4617464146102202A801F018
:1075A000D5FB6B1C09D04FF47A70B5FBF0F3CDE935
:1075B000023800FB13535843049060691023009372
:1075C000006802AB41F2050240F6FF71FEF736FC9F
:1075D000002807DAFEF786FD03686360002006B026
:1075E000BDE8F0816069002300683A463146FEF745
:1075F00045FC031EEEDB1846F1E7000038B5846950
:107600000A4B036005467CB16368013B63605BB96C
:10761000236820469B689847A368013BA3601BB979
:1076200023682046DB689847284638BDE8960D0059
:1076300010B50446FFF7E2FF20461C2100F011FCC4
:10764000204610BD70B54D69054B04468C3544F895
:10765000043B06460FCD0FC42B682370304670BD27
:1076600018960D0010B54369B3F88620B3F884303E
:107670009A42044605D06369B3F88420134418790C
:1076800010BD03681B6998470028F4D14FF0FF3004
:10769000F6E710B54369B3F88620B3F884309A4210
:1076A000044608D06369B3F88420511CA3F8841001
:1076B0001344187910BD03681B6998470028F1D15D
:1076C0004FF0FF30F6E7F8B543691746B3F8862068
:1076D000B3F884309A4205460E4616D06969B1F86F
:1076E0008430B1F88640E41ABC4228BF3C460433DB
:1076F00022461944304601F001FB6A69B2F8843031
:107700002344A2F884302046F8BD03681B699847DB
:107710000028E3D14FF0FF34F5E742690023A2F8D7
:1077200084304269A2F8863070472DE9F0411F4647
:1077300003680C46DB6A8AB0054616469847237DE7
:10774000D5F81480042B0CBF02200A200622012148
:10775000FEF79CFBC8F800006B691B68002B08DA79
:107760002B682846DB6A0024984720460AB0BDE80B
:10777000F0812846FFF7D1FFB7B1002303A9F8B283
:107780000393ADF81030FEF715FA0028E8D16869C8
:1077900006230093006803AB41F20B0240F6FF7131
:1077A000FEF74CFB0028DBD11C22002103A801F0CE
:1077B000CDFA237D042B1DD14FF407733046ADF86D
:1077C0000C30FEF79BFAADF80E006068FEF78EFAFB
:1077D00004906B691C22186803A9FEF73FFB002880
:1077E000BED104340FCC6D698C350FC523682B7066
:1077F0000124BAE740F61C233046ADF80C30FEF702
:107800007DFA05AEADF80E00231D04F114071868CB
:107810005968324603C20833BB421646F7D1D8E74F
:1078200030B54269B2F886308BB004462BB1B2F85D
:1078300084209A4201D1FFF770FF6169086800282F
:1078400018DBB1F886507F2D14D804310823C5F118
:1078500080022944FEF70AFB002813DD6369B3F8B0
:1078600086200AB9A3F884206369B3F886201044FF
:10787000A3F886006369B3F88600B3F88430C01AB1
:107880000BB030BDFEF72EFC03680B2BF2D0FEF7D9
:1078900029FC03680B2BEDD020230025CDE9023510
:1078A000FEF720FC03680193084B0949009302AAE4
:1078B0002B463220FEF742FB63691868FEF7C6FAD2
:1078C00063694FF0FF321A60D4E700BFB3960D0032
:1078D000AC960D0010B5436904461868002801DB1A
:1078E000FEF7B4FA63694FF0FF321A606069112243
:1078F00000218C3001F02AFA2046BDE81040FFF745
:107900000CBF10B5002304460160C0F884308830F5
:10791000FFF7FCFB204610BD73B500234FF47A72CD
:10792000C0E901320E4A0361026043610446AC20A3
:107930000191FCF7B0FB051E05F10C0608D00123F0
:10794000C5E90133074B01992B603046FFF7D9FF9A
:107950002046C4E90565FFF7E0FE02B070BD00BF38
:10796000E8960D00CC960D0010B54FF0FF3104469F
:10797000FFF7D2FF204610BD10B50446006800286E
:1079800001DBFEF763FA204610BD0C30FFF7F4BFB1
:107990002DE9F0439846036893B00D460024DB6A56
:1079A00006461746984728466B46224621460094CD
:1079B000FEF7B8F80546002863D1009B002B4BD09A
:1079C0005B69002B48D006A8FFF7A0FB009B5C6911
:1079D0006378022B04D1211D06A8FEF74AFC26E09D
:1079E0000A2B24D11122294601A801F0AFF9A3687E
:1079F000002B38D004F108030DF1040C183418687A
:107A00005968624603C20833A3429446F7D106235D
:107A100001A90CA88DF81430FFF786FB0DF1340C8A
:107A2000BCE80F0007AC0FC4DCF80030237006A8D8
:107A3000FFF78CFB80B1336807ADD3F82090124B71
:107A40000C930FCD0DAC0FC42B6823703A46434600
:107A50000CA93046C84705460098FEF75BF8284653
:107A600013B0BDE8F083E368002BC3D14FF6FF707D
:107A7000D4F81090FEF73AF98145BBD104F1140116
:107A8000AAE72546E8E700BF18960D0000224068E7
:107A90001146FEF79FBA002240681146FEF7BABAB7
:107AA000002240681146FEF7C5BA40680022FEF782
:107AB000B9BA4068002281F00101FEF7A3BA0023A1
:107AC00040681A461946FEF795BA002240681146EA
:107AD000FEF770BA406800220221FEF773BA002355
:107AE00040681A46FEF75EBA024B04225A60024A08
:107AF0001A607047BCE7032034970D0000234068EC
:107B00001A46FEF74FBA406800220221FEF75ABA21
:107B1000002240681146FEF74DBA00224068114627
:107B2000FEF758BA002340681A461946FEF75ABABB
:107B3000002340681A461946FEF75CBA40680021E7
:107B4000FEF780BA40680021FEF784BA4068002240
:107B500081F00101FEF756BA40680022FEF762BAD2
:107B6000002240681146FEF765BA002240681146BF
:107B7000FEF750BA2DE9F043002495B016460D46A5
:107B80000746FFF7C3FA214618220EA8009401F019
:107B9000DDF84023CDE90C3421466B460CAA304673
:107BA000FDF7C0FF044600284CD102460121686859
:107BB000FEF710FA0221804622466868FEF70AFAAC
:107BC000009E81462146002E3CD000293AD17368A0
:107BD000022B03D00A2B11D0F669F4E7B8F1000F9D
:107BE0000AD0716906A8043107ADFFF7DFFA0FCD9F
:107BF0003C1D0FC42B6823704146EDE7B9F1000F1F
:107C000001D14946E8E77469102201A801F09EF805
:107C100006238DF8143001AD04F1080318341868F8
:107C200059682A4603C20833A3421546F7D101A971
:107C300006A807ADFFF778FA0FCD3C1D0FC42B68DF
:107C40002370DEE70098FDF765FF384615B0BDE804
:107C5000F0830000024B034A1A6000225A6070470A
:107C6000C4E7032070970D00232813B502D9002024
:107C700002B010BDA0F10B03022B1AD8174C2178CB
:107C8000BFF35B8F11F001010BD120460191FCF78E
:107C90000AFA019928B11248FEF772FA2046FCF759
:107CA00007FA0F4B1878FEF701F90028DFD1012001
:107CB000DEE7012809D800F0A7F80021007CFEF7D4
:107CC000A5F880F00100C0B2D2E709380128EED84B
:107CD000FFF756FB007CFEF749F8F2E7CCE70320FC
:107CE000D0E70320232838B504460D460AD8FF29DB
:107CF00008D0FFF7B9FF28B129462046BDE8384033
:107D0000FDF720BF38BD38B504460D46FDF722FF0C
:107D1000FF2810D0062804D84D2323FA00F0C3070B
:107D200009D42046FFF7A0FF28B129462046BDE828
:107D30003840FDF717BF38BD10B50446FDF70AFF00
:107D4000031FDBB2012B08D92046FFF78DFF20B1BE
:107D50002046BDE81040FDF70DBF002010BD0D28E6
:107D600010B504469CBF0E34A4B22046FFF77CFF3A
:107D700050B103212046FDF7DDFE032804D1204643
:107D8000BDE81040FDF706BF002010BD38B5044621
:107D90000D46FFF769FFF0B104212046FDF7CAFE4A
:107DA000042805D1A9B22046BDE83840FDF7EABE57
:107DB00002212046FDF7BEFE02280CD12046FDF729
:107DC000C9FE012801D0042805D129462046BDE876
:107DD0003840FDF7E7BE38BD38B500232025438085
:107DE000142304460380856005610649284600F097
:107DF0003AF804496060284600F035F8E060204613
:107E000038BD00BFA4970D0030B50F4D2978BFF3E2
:107E10005B8F11F0010487B013D12846FCF743F9BA
:107E200078B101A8FFF7D8FF01AA21460748FFF75C
:107E3000FDFA2846FCF73CF9054A0649034800F0DC
:107E40000BF8024807B030BDDCE70320E0E7032071
:107E500018E50320D5730D000B460146184600F0C7
:107E600031BFFCF71CB9FCF718B908B5FEF732F9B9
:107E7000014900F0F9B800BFC0970D007FB500249C
:107E80001023CDE90234036800949E698DF8044004
:107E900015466B461268B0479DF8043003F00603A0
:107EA000062B03BF009B2B600120204604B070BD51
:107EB0000098904214BF01200620704710B5034B74
:107EC0000360044600F0CDF8204610BD00980D0078
:107ED00010B50446FFF7F2FF20460821FFF7C1FF67
:107EE000204610BD2DE9F0411F46DDE90834DDF8DC
:107EF000188098450646154607D1079900F0B4F852
:107F000018B165710020BDE8F0813946304600F0B7
:107F1000ABF80028F6D00123C4F800802571A371C6
:107F2000F0E738B515461C4600F09EF820B108234E
:107F3000E36006232560237138BD73B505460C4602
:107F400001921E4600F090F850B9032E08D823681D
:107F5000019A5B692946204602B0BDE87040184787
:107F600002B070BD10B5034B03600446FFF7A6FFD7
:107F7000204610BD60980D0010B50446FFF7F2FFD3
:107F800020460C21FFF76DFF204610BDF7B5089F76
:107F9000974205460E4614460AD0A868026808971C
:107FA000156A31462246AC4603B0BDE8F040604752
:107FB0001946019300F058F8019B0028EDD00620E7
:107FC00003B0F0BD2DE9F14F0D461946DDE90A4B2E
:107FD000DDE90CA681461746984600F045F890B1B9
:107FE000002D3460377109DB61198A450CBF062109
:107FF0000121B171002001B0BDE8F08F0235F9D147
:108000000123B371F6E7544506D15946484600F0BE
:108010002BF808B17771EDE7D9F808000368CDE9CE
:108020000CA6CDE90A4BDC693A4643462946A446EC
:1080300001B0BDE8F04F60472DE9F04107460C461E
:1080400015461E46FFF76DFF48B9B86803689F697B
:108050002A4633462146BC46BDE8F0416047BDE8AC
:10806000F081704700207047814208B50ED040680B
:1080700003782A2B0CD049680B782A2B08BF0131D2
:1080800000F090FEB0FA80F0400908BD0120FCE746
:108090000020FAE781F0004102E000BF83F00043D6
:1080A00030B54FEA41044FEA430594EA050F08BF93
:1080B00090EA020F1FBF54EA000C55EA020C7FEA57
:1080C000645C7FEA655C00F0E2804FEA5454D4EBD4
:1080D0005555B8BF6D420CDD2C4480EA020281EA9E
:1080E000030382EA000083EA010180EA020281EAD6
:1080F0000303362D88BF30BD11F0004F4FEA013128
:108100004FF4801C4CEA113102D0404261EB410136
:1081100013F0004F4FEA03334CEA133302D05242BC
:1081200063EB430394EA050F00F0A780A4F1010478
:10813000D5F1200E0DDB02FA0EFC22FA05F28018B2
:1081400041F1000103FA0EF2801843FA05F3594198
:108150000EE0A5F120050EF1200E012A03FA0EFC17
:1081600028BF4CF0020C43FA05F3C01851EBE37141
:1081700001F0004507D54FF0000EDCF1000C7EEB5E
:1081800000006EEB0101B1F5801F1BD3B1F5001F9C
:108190000CD349085FEA30004FEA3C0C04F10104BB
:1081A0004FEA445212F5800F80F09A80BCF1004FE4
:1081B00008BF5FEA500C50F1000041EB045141EA66
:1081C000050130BD5FEA4C0C404141EB0101013C2F
:1081D00028BFB1F5801FE9D291F0000F04BF01461E
:1081E0000020B1FA81F308BF2033A3F10B03B3F1F0
:1081F00020020CDA0C3208DD02F1140CC2F10C0280
:1082000001FA0CF021FA02F10CE002F11402D8BFDD
:10821000C2F1200C01FA02F120FA0CFCDCBF41EAA9
:108220000C019040E41AA2BF01EB0451294330BD78
:108230006FEA04041F3C1CDA0C340EDC04F1140455
:10824000C4F1200220FA04F001FA02F340EA03002C
:1082500021FA04F345EA030130BDC4F10C04C4F172
:10826000200220FA02F001FA04F340EA0300294652
:1082700030BD21FA04F0294630BD94F0000F83F49C
:10828000801306BF81F480110134013D4EE77FEA7F
:10829000645C18BF7FEA655C29D094EA050F08BFCB
:1082A00090EA020F05D054EA000C04BF19461046AC
:1082B00030BD91EA030F1EBF0021002030BD5FEAF0
:1082C000545C05D14000494128BF41F0004130BD18
:1082D00014F580043CBF01F5801130BD01F000456C
:1082E00045F0FE4141F470014FF0000030BD7FEADF
:1082F000645C1ABF194610467FEA655C1CBF0B46DA
:10830000024650EA013406BF52EA033591EA030FF0
:1083100041F4002130BD00BF90F0000F04BF0021E8
:10832000704730B54FF4806404F132044FF000051B
:108330004FF0000150E700BF90F0000F04BF002194
:10834000704730B54FF4806404F1320410F00045FA
:1083500048BF40424FF000013EE700BF42004FEAF5
:10836000E2014FEA31014FEA02701FBF12F07F4372
:1083700093F07F4F81F06051704732F07F4208BF29
:10838000704793F07F4F04BF41F40021704730B530
:108390004FF4607401F0004521F000411CE700BF7C
:1083A00050EA010208BF704730B54FF000050AE0FF
:1083B00050EA010208BF704730B511F0004502D500
:1083C000404261EB41014FF4806404F132045FEA02
:1083D000915C3FF4D8AE4FF003025FEADC0C18BFAB
:1083E00003325FEADC0C18BF033202EBDC02C2F19D
:1083F000200300FA03FC20FA02F001FA03FE40EA2F
:108400000E0021FA02F11444BDE600BF70B54FF032
:10841000FF0C4CF4E06C1CEA11541DBF1CEA135510
:1084200094EA0C0F95EA0C0F00F0DEF82C4481EA78
:10843000030621EA4C5123EA4C5350EA013518BF98
:1084400052EA033541F4801143F4801338D0A0FB85
:1084500002CE4FF00005E1FB02E506F00042E0FB32
:1084600003E54FF00006E1FB03569CF0000F18BF38
:108470004EF0010EA4F1FF04B6F5007F64F54074E0
:1084800004D25FEA4E0E6D4146EB060642EAC62173
:1084900041EA55514FEAC52040EA5E504FEACE2EE0
:1084A000B4F1FD0C88BFBCF5E06F1ED8BEF1004FE3
:1084B00008BF5FEA500E50F1000041EB045170BD5F
:1084C00006F0004646EA010140EA020081EA0301A3
:1084D000B4EB5C04C2BFD4EB0C0541EA045170BD9F
:1084E00041F480114FF0000E013C00F3AB8014F119
:1084F000360FDEBF002001F0004170BDC4F1000462
:10850000203C35DA0C341BDC04F11404C4F12005E2
:1085100000FA05F320FA04F001FA05F240EA02003D
:1085200001F0004221F0004110EBD37021FA04F673
:1085300042EB06015EEA430E08BF20EAD37070BD2D
:10854000C4F10C04C4F1200500FA04F320FA05F08C
:1085500001FA04F240EA020001F0004110EBD3708E
:1085600041F100015EEA430E08BF20EAD37070BDFE
:10857000C4F1200500FA05F24EEA020E20FA04F3D7
:1085800001FA05F243EA020321FA04F001F0004186
:1085900021FA04F220EA020000EBD3705EEA430EF7
:1085A00008BF20EAD37070BD94F0000F0FD101F026
:1085B0000046400041EB010111F4801F08BF013C5F
:1085C000F7D041EA060195F0000F18BF704703F09D
:1085D0000046520043EB030313F4801F08BF013D24
:1085E000F7D043EA0603704794EA0C0F0CEA1355E0
:1085F00018BF95EA0C0F0CD050EA410618BF52EA9A
:108600004306D1D181EA030101F000414FF000009F
:1086100070BD50EA410606BF1046194652EA4306AD
:1086200019D094EA0C0F02D150EA013613D195EA21
:108630000C0F05D152EA03361CBF104619460AD169
:1086400081EA030101F0004141F0FE4141F4700173
:108650004FF0000070BD41F0FE4141F4780170BD63
:1086600070B54FF0FF0C4CF4E06C1CEA11541DBFC8
:108670001CEA135594EA0C0F95EA0C0F00F0A7F8CA
:10868000A4EB050481EA030E52EA03354FEA0131F7
:1086900000F088804FEA03334FF0805545EA13130A
:1086A00043EA12634FEA022245EA111545EA1065D2
:1086B0004FEA00260EF000419D4208BF964244F169
:1086C000FD0404F5407402D25B084FEA3202B61A88
:1086D00065EB03055B084FEA32024FF480104FF45C
:1086E000002CB6EB020E75EB030E22BFB61A7546D0
:1086F00040EA0C005B084FEA3202B6EB020E75EB63
:10870000030E22BFB61A754640EA5C005B084FEACA
:108710003202B6EB020E75EB030E22BFB61A754697
:1087200040EA9C005B084FEA3202B6EB020E75EBA2
:10873000030E22BFB61A754640EADC0055EA060E63
:1087400018D04FEA051545EA16754FEA06164FEAA6
:10875000C30343EA52734FEAC2025FEA1C1CC0D152
:1087600011F4801F0BD141EA00014FF000004FF0DF
:10877000004CB6E711F4801F04BF01430020B4F1A0
:10878000FD0C88BFBCF5E06F3FF6AFAEB5EB030C58
:1087900004BFB6EB020C5FEA500C50F1000041EB55
:1087A000045170BD0EF0004E4EEA113114EB5C0422
:1087B000C2BFD4EB0C0541EA045170BD41F48011F5
:1087C0004FF0000E013C90E645EA060E8DE60CEAFD
:1087D000135594EA0C0F08BF95EA0C0F3FF43BAF1A
:1087E00094EA0C0F0AD150EA01347FF434AF95EAD1
:1087F0000C0F7FF425AF104619462CE795EA0C0FB5
:1088000006D152EA03353FF4FDAE1046194622E781
:1088100050EA410618BF52EA43067FF4C5AE50EA5B
:1088200041047FF40DAF52EA43057FF4EBAE12E74B
:108830004FF0FF3C06E000BF4FF0010C02E000BF2C
:108840004FF0010C4DF804CD4FEA410C7FEA6C5C0F
:108850004FEA430C18BF7FEA6C5C1BD001B050EAB2
:10886000410C0CBF52EA430C91EA030F02BF90EA9D
:10887000020F0020704710F1000F91EA030F58BF5C
:10888000994208BF90422CBFD8176FEAE37040F0BE
:10889000010070474FEA410C7FEA6C5C02D150EA5C
:1088A000013C07D14FEA430C7FEA6C5CD6D152EA17
:1088B000033CD3D05DF8040B704700BF84461046DC
:1088C00062468C461946634600E000BF01B5FFF7DB
:1088D000B7FF002848BF10F1000F01BD4DF808EDAB
:1088E000FFF7F4FF0CBF012000205DF808FB00BF7C
:1088F0004DF808EDFFF7EAFF34BF012000205DF8D6
:1089000008FB00BF4DF808EDFFF7E0FF94BF012022
:1089100000205DF808FB00BF4DF808EDFFF7CEFF23
:1089200094BF012000205DF808FB00BF4DF808ED62
:10893000FFF7C4FF34BF012000205DF808FB00BF33
:108940004A0011D212F5001211D20DD56FF47873CE
:10895000B3EB62520ED44FEAC12343F0004343EA23
:10896000505323FA02F070474FF00000704750EA6E
:10897000013002D14FF0FF3070474FF000007047D8
:1089800053B94AB9002908BF00281CBF4FF0FF3176
:108990004FF0FF3000F08CB9ADF1080C6DE904CE5A
:1089A00000F024F8DDF804E0DDE9022304B07047AC
:1089B000D0B50C4B002206460F46FFF727FDFFF708
:1089C000BFFF0446FFF7A8FC074B0022FFF71EFD80
:1089D00002460B4630463946FFF760FBFFF7B0FF13
:1089E0002146D0BD0000F03D0000F0412DE9F047E8
:1089F000089D04468C46002B40F083808A4217462F
:108A000047D9B2FA82F242B1C2F1200024FA00F052
:108A10009140974040EA010C94404FEA1748230CDC
:108A2000BCFBF8F61FFA87FE08FB16C143EA0143B8
:108A300006FB0EF1994209D9FB1806F1FF3080F0D0
:108A40001981994240F21681023E3B445B1AA4B25E
:108A5000B3FBF8F008FB103344EA034400FB0EFEBE
:108A6000A64509D93C1900F1FF3380F00581A645E0
:108A700040F2028102383C4440EA0640A4EB0E0476
:108A800000261DB1D4400023C5E900433146BDE8AE
:108A9000F08702B9FFDEB2FA82F2002A50D1CB1B76
:108AA0004FEA174E1FFA87F80126B3FBFEFC210C94
:108AB0000EFB1C3341EA034108FB0CF38B4207D940
:108AC00079180CF1FF3002D28B4200F2E980844623
:108AD000C91AA3B2B1FBFEF00EFB101143EA014428
:108AE00008FB00F8A04507D93C1900F1FF3302D27A
:108AF000A04500F2D9801846A4EB080440EA0C40D7
:108B0000BFE78B4209D9002D00F0B1800026C5E9EE
:108B1000000130463146BDE8F087B3FA83F6002EF7
:108B20004AD18B4202D3824200F2B880841A61EBB0
:108B3000030101208C46002DA8D0C5E9004CA5E713
:108B4000C2F1200320FA03F6974001FA02F04FEA3F
:108B5000174ED9403043030CB1FBFEF61FFA87F8DD
:108B60000EFB161143EA014306FB08F1994204FA91
:108B700002F409D9FB1806F1FF3C80F08D80994280
:108B800040F28A80023E3B445B1A81B2B3FBFEF0A6
:108B90000EFB103341EA034100FB08F38B4207D977
:108BA000791800F1FF3C73D28B4271D902383944F5
:108BB000CB1A40EA064678E7C6F1200C03FA06F421
:108BC00022FA0CF31C4320FA0CF701FA06F34FEAE1
:108BD000144E21FA0CF11F433B0CB1FBFEF91FFAB6
:108BE00084F80EFB191143EA014109FB08FA8A4592
:108BF00002FA06F200FA06F308D9611809F1FF300B
:108C000048D28A4546D9A9F102092144A1EB0A01BB
:108C1000BFB2B1FBFEF00EFB101147EA014700FBAB
:108C200008F8B84507D9E71900F1FF312ED2B84549
:108C30002CD90238274440EA0940A7EB0807A0FBDB
:108C400002894F45C64649461AD317D05DB1B3EBEA
:108C50000E0267EB010707FA0CFCF2404CEA020235
:108C6000F740C5E9002700263146BDE8F0872E46CB
:108C700028460BE70646E9E61846FDE64345E5D2F9
:108C8000B8EB020E69EB04010138DFE70846D2E7D2
:108C900060468DE78146B9E7664675E730464AE7A4
:108CA000ACF1020C394413E702383C4424E700BF1E
:108CB000704700BF0A22002100F020B90A220021DB
:108CC00000F01CB910B5054C13462CB10A460146FC
:108CD0000220AFF3008010BD2046FCE7000000003A
:108CE00030B501390024A24201D1002005E0035D26
:108CF00001340D5DAB42F6D0581B30BD0A449142A1
:108D000000F1FF3300D1704710B511F8014B03F8A3
:108D1000014F9142F9D110BD884210B501EB020418
:108D200002D98442234607D8431EA14208D011F835
:108D3000012B03F8012FF8E7024401468A4200D1D3
:108D400010BD13F8014D02F8014DF7E70244034648
:108D5000934200D1704703F8011BF9E738B50D4B7A
:108D60001D68AB6B04467BB91820FDF793F90A4ADE
:108D70000A4BA863C0E90023094B83600B2383815E
:108D800001220023C0E90423AB6B00221C615A615D
:108D900038BD00BFB0E403200E33CDAB34126DE616
:108DA000ECDE050010F8012B11F8013B012A28BF69
:108DB0009A42F7D0D01A7047034613F8012B002AC5
:108DC000FBD1181A0138704710B50139034632B18A
:108DD00011F8014F03F8014B013A002CF7D11A4466
:108DE0000021934200D110BD03F8011BF9E710B533
:108DF000024601448A42134601D1181A10BD1C785C
:108E00000132002CF6D1F8E72DE9F0473A4E8646BC
:108E10008C4660461CF8014BA55D15F00805F8D19D
:108E20002D2C33D19CF800404FF0010800F1020CCA
:108E3000002B5CD0102B0CD1302C0AD19CF80000F8
:108E400000F0DF0058284DD19CF8014010230CF1B0
:108E5000020C08F10047013F0026B7FBF3F930464A
:108E600003FB197AA4F13005092D18D82C46A3422A
:108E700024DD751C07D081451DD301D1A2451ADB25
:108E800000FB034001261CF8014BEBE72B2C08BF2D
:108E90009CF80040A84608BF00F1020CC8E7A4F106
:108EA0004105192D01D8373CE1E7A4F16105192DE1
:108EB00004D8573CDBE74FF0FF36E4E7731C06D1DC
:108EC0002223CEF80030384642B9BDE8F087B8F129
:108ED000000F00D04042002AF7D00EB10CF1FF3154
:108EE0001160F2E73024002BB3D10823B1E7302C16
:108EF000A4D00A23ADE700BF9A980D0013460A4696
:108F0000014602480068FFF77FBF00BFB0E40320BE
:108F100021400D005D400D0085400D0089400D0091
:108F200000000000256900256C6900696E006F75FE
:108F3000740070776D00647700617700573043509C
:108F4000635741746955416F4A71754F7050555F51
:108F5000686B584B764E7372337841510074687267
:108F600065616431007468726561643200746872AE
:108F70006561643300446576696365206E6F7420B3
:108F8000666F756E642E20506C6561736520636832
:108F900065636B20776972696E672E0076770025AE
:108FA000322E37660025750067726F7570422F7616
:108FB000697368616C54656D700067726F7570429B
:108FC0002F76697368616C50726F780067726F7585
:108FD00070422F76697368616C4C75780067726FA8
:108FE0007570422F74726967676572496E74657235
:108FF000727570740056697368616C277320424CF7
:109000004520697320646973636F6E6E6563746570
:1090100064006C61622E74686577636C2E636F6D9B
:109020000036453430303030312D423541332D4615
:109030003339332D453041392D45353045323444AF
:1090400043434139450036453430303030322D42CB
:109050003541332D463339332D453041392D453592
:10906000304532344443434139450036453430308D
:109070003030332D423541332D463339332D453091
:1090800041392D453530453234444343413945005B
:10909000626C6E6B696E660076657200312E302EE2
:1090A0003000682D62656174003435006275666653
:1090B0002D696E0031303234006465760050617283
:1090C0007469636C65006275696C64004A756C2034
:1090D000313520323032312031313A31373A353181
:1090E00000000000044D5154540400064D514973D2
:1090F00064700300E55A0D00E55A0D00E55A0D00B5
:10910000E55A0D00E55A0D00E55A0D00E55A0D002F
:10911000E55A0D00E55A0D00E55A0D00E55A0D001F
:10912000E55A0D00E55A0D00E55A0D00E55A0D000F
:10913000E55A0D00E55A0D00E55A0D00E55A0D00FF
:10914000E55A0D00E55A0D00E55A0D00E55A0D00EF
:10915000E55A0D00E55A0D00E55A0D00E55A0D00DF
:10916000E55A0D00E55A0D00E55A0D00E55A0D00CF
:10917000E55A0D00E55A0D00E55A0D00E55A0D00BF
:10918000E55A0D00E55A0D00E55A0D00E55A0D00AF
:10919000E55A0D00E55A0D00E55A0D00E55A0D009F
:1091A000E55A0D00E55A0D00E55A0D00E55A0D008F
:1091B000E55A0D00E55A0D00E55A0D00E55A0D007F
:1091C000E55A0D00E55A0D00E55A0D00E55A0D006F
:1091D000E55A0D00E55A0D00E55A0D00E55A0D005F
:1091E000E55A0D00E55A0D00E55A0D00E55A0D004F
:1091F000E55A0D00E55A0D00E55A0D00E55A0D003F
:10920000E55A0D00E55A0D00E55A0D00E55A0D002E
:10921000E55A0D00E55A0D00E55A0D00E55A0D001E
:10922000E55A0D00E55A0D00E55A0D00E55A0D000E
:10923000E55A0D00E55A0D00E55A0D00E55A0D00FE
:10924000E55A0D00E55A0D00E55A0D00E55A0D00EE
:10925000E55A0D00E55A0D00E55A0D00E55A0D00DE
:10926000E55A0D00E55A0D00E55A0D00E55A0D00CE
:10927000E55A0D00E55A0D00E55A0D00E55A0D00BE
:10928000E55A0D00E55A0D00E55A0D00E55A0D00AE
:10929000E55A0D00E55A0D00E55A0D00E55A0D009E
:1092A000E55A0D00E55A0D00E55A0D00E55A0D008E
:1092B000E55A0D00E55A0D00E55A0D00E55A0D007E
:1092C000E55A0D00E55A0D00E55A0D00E55A0D006E
:1092D000E55A0D00E55A0D00E55A0D00E55A0D005E
:1092E000E55A0D00E55A0D00E55A0D00E55A0D004E
:1092F000E55A0D00E75A0D00E75A0D00E75A0D0038
:10930000E75A0D00E75A0D00E75A0D00E75A0D0025
:10931000E75A0D00E75A0D00E75A0D00E75A0D0015
:10932000E75A0D00E75A0D00E75A0D00E75A0D0005
:10933000E75A0D00E75A0D00E75A0D00E75A0D00F5
:10934000E75A0D00E75A0D00E75A0D00E75A0D00E5
:10935000E75A0D00E75A0D00E75A0D00E75A0D00D5
:10936000E75A0D00E75A0D00E75A0D00E75A0D00C5
:10937000E75A0D00E75A0D00E75A0D00E75A0D00B5
:10938000E75A0D00E75A0D00E75A0D00E75A0D00A5
:10939000E75A0D00E75A0D00E75A0D00E75A0D0095
:1093A000E75A0D00E75A0D00E75A0D00E75A0D0085
:1093B000E75A0D00E75A0D00E75A0D00E75A0D0075
:1093C000E75A0D00E75A0D00E75A0D00E75A0D0065
:1093D000E75A0D00E75A0D00E75A0D00E75A0D0055
:1093E000E75A0D00E75A0D00E75A0D00E75A0D0045
:1093F000E75A0D00E75A0D00E75A0D00E75A0D0035
:10940000E75A0D00E75A0D00E75A0D00E75A0D0024
:10941000E75A0D00E75A0D00E75A0D00E75A0D0014
:10942000E75A0D00E75A0D00E75A0D00E75A0D0004
:10943000E75A0D00E75A0D00E75A0D00E75A0D00F4
:10944000E75A0D00E75A0D00E75A0D00E75A0D00E4
:10945000E75A0D00E75A0D00E75A0D00E75A0D00D4
:10946000E75A0D00E75A0D00E75A0D00E75A0D00C4
:10947000E75A0D00E75A0D00E75A0D00E75A0D00B4
:10948000E75A0D00E75A0D00E75A0D00E75A0D00A4
:10949000E75A0D00E75A0D00E75A0D00E75A0D0094
:1094A000E75A0D00E75A0D00E75A0D00E75A0D0084
:1094B000E75A0D00E75A0D00E75A0D00E75A0D0074
:1094C000E75A0D00E75A0D00E75A0D00E75A0D0064
:1094D000E75A0D00E75A0D00E75A0D00E75A0D0054
:1094E000E75A0D00E75A0D00E75A0D00E75A0D0044
:1094F000E75A0D00000000000000000063610D004D
:1095000059610D004F610D0045610D0039610D007D
:109510002D610D003D7B0D00457B0D0021610D008F
:1095200019610D000F610D0005610D00757B0D00C7
:10953000776972696E672E626C650053746172742C
:1095400020646973636F766572696E6720736572F4
:1095500076696365732E004661696C656420746F7B
:1095600020617070656E6420706565722043656E61
:109570007472616C206465766963652E00436F6E5A
:109580006E65637465642062792043656E747261F0
:109590006C206465766963652E00446973636F6E41
:1095A0006E65637465642062792072656D6F7465A1
:1095B000206465766963652E0000000000000000ED
:1095C000000000007D640D00A1640D009F6A0D0085
:1095D000AF640D0081640D00000000000000000079
:1095E000FB349B5F80000080001000000000000042
:1095F0006170700025592D256D2D25645425483A3C
:10960000254D3A2553257A0061736374696D6500B1
:109610000000000000000000A9700D0099700D000E
:109620009B700D000000000000000000CD710D00D7
:1096300035720D000B720D00096E0D00FD710D00ED
:10964000CF710D00DF710D002F720D00EF710D0055
:10965000C9710D000000000000000000D9720D006B
:1096600045730D001D730D00096E0D00ED720D00A8
:1096700009730D00FB720D0017730D00DB720D00F6
:10968000DF720D000000000000000000D5730D0027
:109690001F740D00F7730D00D7730D00FF730D00DD
:1096A00007740D000F740D0017740D00776972694F
:1096B0006E670072656376206572726F72203D205E
:1096C0002564000000000000000000004D750D0042
:1096D00071750D008B790D007F750D0051750D00B2
:1096E0000000000000000000FD750D0031760D0047
:1096F000CB740D00E5740D0021780D0093760D00FC
:1097000065760D000F750D002B770D0091790D001A
:10971000C7760D00D5780D0011750D0043750D004D
:10972000F7740D0083750D0045760D0000000000F4
:1097300000000000DF7A0D00D57A0D00CB7A0D0015
:109740008D7A0D00136F0D00BF7A0D003D7B0D006B
:10975000457B0D00B37A0D00AB7A0D00A17A0D00A8
:10976000977A0D00757B0D000000000000000000DE
:10977000FD7A0D00077B0D00117B0D001B7B0D009A
:10978000257B0D00317B0D003D7B0D00457B0D00E1
:109790004D7B0D00597B0D00617B0D006B7B0D0037
:1097A000757B0D0000537431395F53705F6D616BD1
:1097B000655F7368617265645F74616700000000D3
:1097C00000980D00A5970D0060980D00D4970D002E
:1097D00084980D004E31305F5F63787861626976FE
:1097E0003131375F5F636C6173735F747970655F8C
:1097F000696E666F4500000000000000C8970D000C
:10980000BD7E0D00D17E0D0065800D0065800D00D0
:109810003B7F0D007D7E0D00237F0D00E57E0D005A
:10982000B17E0D0060980D0030980D00C8970D00B6
:109830004E31305F5F637878616269763132305FD4
:109840005F73695F636C6173735F747970655F697F
:109850006E666F45000000000000000024980D00B7
:10986000657F0D00797F0D0065800D0065800D001E
:109870003B7F0D007D7E0D0039800D00C57F0D0002
:109880008D7F0D0000980D008C980D005374397475
:109890007970655F696E666F0000202020202020AF
:1098A0002020202828282828202020202020202090
:1098B0002020202020202020202088101010101090
:1098C00010101010101010101010040404040404E0
:1098D00004040404101010101010104141414141C3
:1098E0004101010101010101010101010101010128
:1098F00001010101011010101010104242424242B9
:1099000042020202020202020202020202020202F7
:1099100002020202021010101020000000000000DD
:109920000000000000000000000000000000000037
:109930000000000000000000000000000000000027
:109940000000000000000000000000000000000017
:109950000000000000000000000000000000000007
:1099600000000000000000000000000000000000F7
:1099700000000000000000000000000000000000E7
:1099800000000000000000000000000000000000D7
:10999000000000000000000000000000454E0D0027
:1099A0006D610D00B5610D00E16D0D00216F0D00C1
:1099B000316F0D00596F0D00E97A0D00557C0D00D7
:0899C0002CF0FF7F0100000004
:0499C800000000009B
:1099CC0008960D00B4E40320000000000000000025
:1099DC00000000000000000000000000000000007B
:1099EC00000000000000000000000000000000006B
:1099FC00000000000000000000000000000000005B
:109A0C00000000000000000000000000000000004A
:109A1C00000000000000000000000000000000003A
:089A2C00000000000000000032
:109A3400FFFFFFFF00000102030405060708090AEF
:109A44000B0C0D0E0F101112131415161718191AEA
:089A54001B1C1D1E1F20280031
:049A5C0078563412F2
:04000003D0004020C9
:00000001FF
